{
  "contractName": "TodoList",
  "abi": [
    {
      "constant": true,
      "inputs": [],
      "name": "taskCount",
      "outputs": [
        {
          "name": "",
          "type": "uint256"
        }
      ],
      "payable": false,
      "stateMutability": "view",
      "type": "function",
      "signature": "0xb6cb58a5"
    }
  ],
  "bytecode": "0x608060405260008055348015601357600080fd5b506099806100226000396000f3fe608060405260043610603e5763ffffffff7c0100000000000000000000000000000000000000000000000000000000600035041663b6cb58a581146043575b600080fd5b348015604e57600080fd5b5060556067565b60408051918252519081900360200190f35b6000548156fea165627a7a723058203b7af4bd6a30e0688a01bcf99b0bef96663d8760529dfe1a4fb347f89dc6f7960029",
  "source": "// SPDX-License-Identifier: UNLICENSED\npragma solidity ^0.5.0;\n //declare version of sol pprogramming lang being used\n\n//declare smart contract\ncontract TodoList{\n    //state variable in solididty\n    //state in a blockchain\n    //menas... changing this changes blockchain state\n\n    uint public taskCount = 0; \n}\n\n",
  "sourcePath": "/home/four/projects/eth-todo-list/contracts/TodoList.sol",
  "compiler": {
    "name": "solc",
    "version": "0.5.0+commit.1d4f565a.Emscripten.clang"
  },
  "schemaVersion": "3.0.1",
  "updatedAt": "2022-09-07T19:15:25.345Z",
  "devdoc": {
    "methods": {}
  },
  "userdoc": {
    "methods": {}
  }
}